{
  "_format": "hh-sol-artifact-1",
  "contractName": "SparkoutToken",
  "sourceName": "contracts/SparkoutToken.sol",
  "abi": [
    {
      "inputs": [],
      "stateMutability": "nonpayable",
      "type": "constructor"
    },
    {
      "inputs": [],
      "name": "ECDSAInvalidSignature",
      "type": "error"
    },
    {
      "inputs": [
        {
          "internalType": "uint256",
          "name": "length",
          "type": "uint256"
        }
      ],
      "name": "ECDSAInvalidSignatureLength",
      "type": "error"
    },
    {
      "inputs": [
        {
          "internalType": "bytes32",
          "name": "s",
          "type": "bytes32"
        }
      ],
      "name": "ECDSAInvalidSignatureS",
      "type": "error"
    },
    {
      "inputs": [
        {
          "internalType": "address",
          "name": "spender",
          "type": "address"
        },
        {
          "internalType": "uint256",
          "name": "allowance",
          "type": "uint256"
        },
        {
          "internalType": "uint256",
          "name": "needed",
          "type": "uint256"
        }
      ],
      "name": "ERC20InsufficientAllowance",
      "type": "error"
    },
    {
      "inputs": [
        {
          "internalType": "address",
          "name": "sender",
          "type": "address"
        },
        {
          "internalType": "uint256",
          "name": "balance",
          "type": "uint256"
        },
        {
          "internalType": "uint256",
          "name": "needed",
          "type": "uint256"
        }
      ],
      "name": "ERC20InsufficientBalance",
      "type": "error"
    },
    {
      "inputs": [
        {
          "internalType": "address",
          "name": "approver",
          "type": "address"
        }
      ],
      "name": "ERC20InvalidApprover",
      "type": "error"
    },
    {
      "inputs": [
        {
          "internalType": "address",
          "name": "receiver",
          "type": "address"
        }
      ],
      "name": "ERC20InvalidReceiver",
      "type": "error"
    },
    {
      "inputs": [
        {
          "internalType": "address",
          "name": "sender",
          "type": "address"
        }
      ],
      "name": "ERC20InvalidSender",
      "type": "error"
    },
    {
      "inputs": [
        {
          "internalType": "address",
          "name": "spender",
          "type": "address"
        }
      ],
      "name": "ERC20InvalidSpender",
      "type": "error"
    },
    {
      "inputs": [
        {
          "internalType": "uint256",
          "name": "deadline",
          "type": "uint256"
        }
      ],
      "name": "ERC2612ExpiredSignature",
      "type": "error"
    },
    {
      "inputs": [
        {
          "internalType": "address",
          "name": "signer",
          "type": "address"
        },
        {
          "internalType": "address",
          "name": "owner",
          "type": "address"
        }
      ],
      "name": "ERC2612InvalidSigner",
      "type": "error"
    },
    {
      "inputs": [],
      "name": "EnforcedPause",
      "type": "error"
    },
    {
      "inputs": [],
      "name": "ExpectedPause",
      "type": "error"
    },
    {
      "inputs": [
        {
          "internalType": "address",
          "name": "account",
          "type": "address"
        },
        {
          "internalType": "uint256",
          "name": "currentNonce",
          "type": "uint256"
        }
      ],
      "name": "InvalidAccountNonce",
      "type": "error"
    },
    {
      "inputs": [],
      "name": "InvalidShortString",
      "type": "error"
    },
    {
      "inputs": [
        {
          "internalType": "address",
          "name": "owner",
          "type": "address"
        }
      ],
      "name": "OwnableInvalidOwner",
      "type": "error"
    },
    {
      "inputs": [
        {
          "internalType": "address",
          "name": "account",
          "type": "address"
        }
      ],
      "name": "OwnableUnauthorizedAccount",
      "type": "error"
    },
    {
      "inputs": [
        {
          "internalType": "string",
          "name": "str",
          "type": "string"
        }
      ],
      "name": "StringTooLong",
      "type": "error"
    },
    {
      "anonymous": false,
      "inputs": [
        {
          "indexed": true,
          "internalType": "address",
          "name": "owner",
          "type": "address"
        },
        {
          "indexed": true,
          "internalType": "address",
          "name": "spender",
          "type": "address"
        },
        {
          "indexed": false,
          "internalType": "uint256",
          "name": "value",
          "type": "uint256"
        }
      ],
      "name": "Approval",
      "type": "event"
    },
    {
      "anonymous": false,
      "inputs": [],
      "name": "EIP712DomainChanged",
      "type": "event"
    },
    {
      "anonymous": false,
      "inputs": [
        {
          "indexed": true,
          "internalType": "address",
          "name": "from",
          "type": "address"
        },
        {
          "indexed": true,
          "internalType": "address",
          "name": "to",
          "type": "address"
        },
        {
          "indexed": false,
          "internalType": "uint256",
          "name": "feeAmount",
          "type": "uint256"
        },
        {
          "indexed": false,
          "internalType": "uint256",
          "name": "amountAfterFee",
          "type": "uint256"
        }
      ],
      "name": "FeeDeducted",
      "type": "event"
    },
    {
      "anonymous": false,
      "inputs": [
        {
          "indexed": true,
          "internalType": "address",
          "name": "previousOwner",
          "type": "address"
        },
        {
          "indexed": true,
          "internalType": "address",
          "name": "newOwner",
          "type": "address"
        }
      ],
      "name": "OwnershipTransferred",
      "type": "event"
    },
    {
      "anonymous": false,
      "inputs": [
        {
          "indexed": false,
          "internalType": "address",
          "name": "account",
          "type": "address"
        }
      ],
      "name": "Paused",
      "type": "event"
    },
    {
      "anonymous": false,
      "inputs": [
        {
          "indexed": true,
          "internalType": "address",
          "name": "from",
          "type": "address"
        },
        {
          "indexed": true,
          "internalType": "address",
          "name": "to",
          "type": "address"
        },
        {
          "indexed": false,
          "internalType": "uint256",
          "name": "value",
          "type": "uint256"
        }
      ],
      "name": "Transfer",
      "type": "event"
    },
    {
      "anonymous": false,
      "inputs": [
        {
          "indexed": true,
          "internalType": "address",
          "name": "from",
          "type": "address"
        },
        {
          "indexed": true,
          "internalType": "address",
          "name": "to",
          "type": "address"
        },
        {
          "indexed": false,
          "internalType": "uint256",
          "name": "amount",
          "type": "uint256"
        },
        {
          "indexed": false,
          "internalType": "uint256",
          "name": "feeAmount",
          "type": "uint256"
        }
      ],
      "name": "TransferSuccessful",
      "type": "event"
    },
    {
      "anonymous": false,
      "inputs": [
        {
          "indexed": false,
          "internalType": "address",
          "name": "account",
          "type": "address"
        }
      ],
      "name": "Unpaused",
      "type": "event"
    },
    {
      "inputs": [],
      "name": "DOMAIN_SEPARATOR",
      "outputs": [
        {
          "internalType": "bytes32",
          "name": "",
          "type": "bytes32"
        }
      ],
      "stateMutability": "view",
      "type": "function"
    },
    {
      "inputs": [
        {
          "internalType": "address",
          "name": "account",
          "type": "address"
        }
      ],
      "name": "addToBlacklist",
      "outputs": [],
      "stateMutability": "nonpayable",
      "type": "function"
    },
    {
      "inputs": [
        {
          "internalType": "address",
          "name": "owner",
          "type": "address"
        },
        {
          "internalType": "address",
          "name": "spender",
          "type": "address"
        }
      ],
      "name": "allowance",
      "outputs": [
        {
          "internalType": "uint256",
          "name": "",
          "type": "uint256"
        }
      ],
      "stateMutability": "view",
      "type": "function"
    },
    {
      "inputs": [
        {
          "internalType": "address",
          "name": "spender",
          "type": "address"
        },
        {
          "internalType": "uint256",
          "name": "value",
          "type": "uint256"
        }
      ],
      "name": "approve",
      "outputs": [
        {
          "internalType": "bool",
          "name": "",
          "type": "bool"
        }
      ],
      "stateMutability": "nonpayable",
      "type": "function"
    },
    {
      "inputs": [
        {
          "internalType": "address",
          "name": "account",
          "type": "address"
        }
      ],
      "name": "balanceOf",
      "outputs": [
        {
          "internalType": "uint256",
          "name": "",
          "type": "uint256"
        }
      ],
      "stateMutability": "view",
      "type": "function"
    },
    {
      "inputs": [
        {
          "internalType": "address",
          "name": "",
          "type": "address"
        }
      ],
      "name": "blacklisted",
      "outputs": [
        {
          "internalType": "bool",
          "name": "",
          "type": "bool"
        }
      ],
      "stateMutability": "view",
      "type": "function"
    },
    {
      "inputs": [],
      "name": "decimals",
      "outputs": [
        {
          "internalType": "uint8",
          "name": "",
          "type": "uint8"
        }
      ],
      "stateMutability": "view",
      "type": "function"
    },
    {
      "inputs": [],
      "name": "eip712Domain",
      "outputs": [
        {
          "internalType": "bytes1",
          "name": "fields",
          "type": "bytes1"
        },
        {
          "internalType": "string",
          "name": "name",
          "type": "string"
        },
        {
          "internalType": "string",
          "name": "version",
          "type": "string"
        },
        {
          "internalType": "uint256",
          "name": "chainId",
          "type": "uint256"
        },
        {
          "internalType": "address",
          "name": "verifyingContract",
          "type": "address"
        },
        {
          "internalType": "bytes32",
          "name": "salt",
          "type": "bytes32"
        },
        {
          "internalType": "uint256[]",
          "name": "extensions",
          "type": "uint256[]"
        }
      ],
      "stateMutability": "view",
      "type": "function"
    },
    {
      "inputs": [],
      "name": "feePercentage",
      "outputs": [
        {
          "internalType": "uint256",
          "name": "",
          "type": "uint256"
        }
      ],
      "stateMutability": "view",
      "type": "function"
    },
    {
      "inputs": [],
      "name": "maxTransferLimit",
      "outputs": [
        {
          "internalType": "uint256",
          "name": "",
          "type": "uint256"
        }
      ],
      "stateMutability": "view",
      "type": "function"
    },
    {
      "inputs": [],
      "name": "name",
      "outputs": [
        {
          "internalType": "string",
          "name": "",
          "type": "string"
        }
      ],
      "stateMutability": "view",
      "type": "function"
    },
    {
      "inputs": [
        {
          "internalType": "address",
          "name": "owner",
          "type": "address"
        }
      ],
      "name": "nonces",
      "outputs": [
        {
          "internalType": "uint256",
          "name": "",
          "type": "uint256"
        }
      ],
      "stateMutability": "view",
      "type": "function"
    },
    {
      "inputs": [],
      "name": "owner",
      "outputs": [
        {
          "internalType": "address",
          "name": "",
          "type": "address"
        }
      ],
      "stateMutability": "view",
      "type": "function"
    },
    {
      "inputs": [],
      "name": "pause",
      "outputs": [],
      "stateMutability": "nonpayable",
      "type": "function"
    },
    {
      "inputs": [],
      "name": "paused",
      "outputs": [
        {
          "internalType": "bool",
          "name": "",
          "type": "bool"
        }
      ],
      "stateMutability": "view",
      "type": "function"
    },
    {
      "inputs": [
        {
          "internalType": "address",
          "name": "owner",
          "type": "address"
        },
        {
          "internalType": "address",
          "name": "spender",
          "type": "address"
        },
        {
          "internalType": "uint256",
          "name": "value",
          "type": "uint256"
        },
        {
          "internalType": "uint256",
          "name": "deadline",
          "type": "uint256"
        },
        {
          "internalType": "uint8",
          "name": "v",
          "type": "uint8"
        },
        {
          "internalType": "bytes32",
          "name": "r",
          "type": "bytes32"
        },
        {
          "internalType": "bytes32",
          "name": "s",
          "type": "bytes32"
        }
      ],
      "name": "permit",
      "outputs": [],
      "stateMutability": "nonpayable",
      "type": "function"
    },
    {
      "inputs": [
        {
          "internalType": "address",
          "name": "account",
          "type": "address"
        }
      ],
      "name": "removeFromBlacklist",
      "outputs": [],
      "stateMutability": "nonpayable",
      "type": "function"
    },
    {
      "inputs": [],
      "name": "renounceOwnership",
      "outputs": [],
      "stateMutability": "nonpayable",
      "type": "function"
    },
    {
      "inputs": [
        {
          "internalType": "uint256",
          "name": "newFee",
          "type": "uint256"
        }
      ],
      "name": "setFeePercentage",
      "outputs": [],
      "stateMutability": "nonpayable",
      "type": "function"
    },
    {
      "inputs": [
        {
          "internalType": "uint256",
          "name": "limit",
          "type": "uint256"
        }
      ],
      "name": "setMaxTransferLimit",
      "outputs": [],
      "stateMutability": "nonpayable",
      "type": "function"
    },
    {
      "inputs": [],
      "name": "symbol",
      "outputs": [
        {
          "internalType": "string",
          "name": "",
          "type": "string"
        }
      ],
      "stateMutability": "view",
      "type": "function"
    },
    {
      "inputs": [],
      "name": "totalSupply",
      "outputs": [
        {
          "internalType": "uint256",
          "name": "",
          "type": "uint256"
        }
      ],
      "stateMutability": "view",
      "type": "function"
    },
    {
      "inputs": [
        {
          "internalType": "address",
          "name": "to",
          "type": "address"
        },
        {
          "internalType": "uint256",
          "name": "amount",
          "type": "uint256"
        }
      ],
      "name": "transfer",
      "outputs": [
        {
          "internalType": "bool",
          "name": "",
          "type": "bool"
        }
      ],
      "stateMutability": "nonpayable",
      "type": "function"
    },
    {
      "inputs": [
        {
          "internalType": "address",
          "name": "from",
          "type": "address"
        },
        {
          "internalType": "address",
          "name": "to",
          "type": "address"
        },
        {
          "internalType": "uint256",
          "name": "amount",
          "type": "uint256"
        }
      ],
      "name": "transferFrom",
      "outputs": [
        {
          "internalType": "bool",
          "name": "",
          "type": "bool"
        }
      ],
      "stateMutability": "nonpayable",
      "type": "function"
    },
    {
      "inputs": [
        {
          "internalType": "address",
          "name": "newOwner",
          "type": "address"
        }
      ],
      "name": "transferOwnership",
      "outputs": [],
      "stateMutability": "nonpayable",
      "type": "function"
    },
    {
      "inputs": [],
      "name": "unpause",
      "outputs": [],
      "stateMutability": "nonpayable",
      "type": "function"
    },
    {
      "inputs": [],
      "name": "withdrawFees",
      "outputs": [],
      "stateMutability": "nonpayable",
      "type": "function"
    }
  ],
  "bytecode": "0x6101606040523480156200001257600080fd5b503360405180604001604052806005815260200164537061726b60d81b81525080604051806040016040528060018152602001603160f81b81525060405180604001604052806005815260200164537061726b60d81b8152506040518060400160405280600381526020016214d3d560ea1b8152508160039081620000989190620004e4565b506004620000a78282620004e4565b50620000b991508390506005620001fe565b61012052620000ca816006620001fe565b61014052815160208084019190912060e052815190820120610100524660a0526200015860e05161010051604080517f8b73c3c69bb8fe3d512ecc4cf759cc79239f7b179b0ffacaa9a75d522b39400f60208201529081019290925260608201524660808201523060a082015260009060c00160405160208183030381529060405280519060200120905090565b60805250503060c052506001600160a01b0381166200019257604051631e4fbdf760e01b8152600060048201526024015b60405180910390fd5b6200019d8162000237565b506008805460ff60a01b19169055620001d333620001be6012600a620006c3565b620001cd90620f4240620006db565b62000289565b6002600b55620001e66012600a620006c3565b620001f590620f4240620006db565b600a5562000781565b60006020835110156200021e576200021683620002c7565b905062000231565b816200022b8482620004e4565b5060ff90505b92915050565b600880546001600160a01b038381166001600160a01b0319831681179093556040519116919082907f8be0079c531659141344cd1fd0a4f28419497f9722a3daafe3b4186f6b6457e090600090a35050565b6001600160a01b038216620002b55760405163ec442f0560e01b81526000600482015260240162000189565b620002c3600083836200030a565b5050565b600080829050601f81511115620002f5578260405163305a27a960e01b8152600401620001899190620006f5565b8051620003028262000746565b179392505050565b6001600160a01b038316620003395780600260008282546200032d91906200076b565b90915550620003ad9050565b6001600160a01b038316600090815260208190526040902054818110156200038e5760405163391434e360e21b81526001600160a01b0385166004820152602481018290526044810183905260640162000189565b6001600160a01b03841660009081526020819052604090209082900390555b6001600160a01b038216620003cb57600280548290039055620003ea565b6001600160a01b03821660009081526020819052604090208054820190555b816001600160a01b0316836001600160a01b03167fddf252ad1be2c89b69c2b068fc378daa952ba7f163c4a11628f55a4df523b3ef836040516200043091815260200190565b60405180910390a3505050565b634e487b7160e01b600052604160045260246000fd5b600181811c908216806200046857607f821691505b6020821081036200048957634e487b7160e01b600052602260045260246000fd5b50919050565b601f821115620004df576000816000526020600020601f850160051c81016020861015620004ba5750805b601f850160051c820191505b81811015620004db57828155600101620004c6565b5050505b505050565b81516001600160401b038111156200050057620005006200043d565b620005188162000511845462000453565b846200048f565b602080601f831160018114620005505760008415620005375750858301515b600019600386901b1c1916600185901b178555620004db565b600085815260208120601f198616915b82811015620005815788860151825594840194600190910190840162000560565b5085821015620005a05787850151600019600388901b60f8161c191681555b5050505050600190811b01905550565b634e487b7160e01b600052601160045260246000fd5b600181815b8085111562000607578160001904821115620005eb57620005eb620005b0565b80851615620005f957918102915b93841c9390800290620005cb565b509250929050565b600082620006205750600162000231565b816200062f5750600062000231565b8160018114620006485760028114620006535762000673565b600191505062000231565b60ff841115620006675762000667620005b0565b50506001821b62000231565b5060208310610133831016604e8410600b841016171562000698575081810a62000231565b620006a48383620005c6565b8060001904821115620006bb57620006bb620005b0565b029392505050565b6000620006d460ff8416836200060f565b9392505050565b8082028115828204841417620002315762000231620005b0565b60006020808352835180602085015260005b81811015620007255785810183015185820160400152820162000707565b506000604082860101526040601f19601f8301168501019250505092915050565b80516020808301519190811015620004895760001960209190910360031b1b16919050565b80820180821115620002315762000231620005b0565b60805160a05160c05160e0516101005161012051610140516117fb620007dc6000396000610ee901526000610ebc01526000610d7a01526000610d5201526000610cad01526000610cd701526000610d0101526117fb6000f3fe608060405234801561001057600080fd5b50600436106101a95760003560e01c8063715018a6116100f9578063a9059cbb11610097578063d505accf11610071578063d505accf1461034a578063dbac26e91461035d578063dd62ed3e14610380578063f2fde38b1461039357600080fd5b8063a9059cbb1461031b578063ae06c1b71461032e578063bd85e93b1461034157600080fd5b806384b0196e116100d357806384b0196e146102d45780638da5cb5b146102ef57806395d89b411461030a578063a001ecdd1461031257600080fd5b8063715018a6146102b15780637ecebe00146102b95780638456cb59146102cc57600080fd5b80633644e51511610166578063476343ee11610140578063476343ee1461025b578063537df3b6146102635780635c975abb1461027657806370a082311461028857600080fd5b80633644e515146102385780633f4ba83a1461024057806344337ea11461024857600080fd5b806306fdde03146101ae578063095ea7b3146101cc57806318160ddd146101ef5780631978c0b31461020157806323b872dd14610216578063313ce56714610229575b600080fd5b6101b66103a6565b6040516101c39190611478565b60405180910390f35b6101df6101da3660046114ae565b610438565b60405190151581526020016101c3565b6002545b6040519081526020016101c3565b61021461020f3660046114d8565b610452565b005b6101df6102243660046114f1565b61045f565b604051601281526020016101c3565b6101f36106d7565b6102146106e6565b61021461025636600461152d565b6106f8565b610214610724565b61021461027136600461152d565b610797565b600854600160a01b900460ff166101df565b6101f361029636600461152d565b6001600160a01b031660009081526020819052604090205490565b6102146107c0565b6101f36102c736600461152d565b6107d2565b6102146107f0565b6102dc610800565b6040516101c39796959493929190611548565b6008546040516001600160a01b0390911681526020016101c3565b6101b6610846565b6101f3600b5481565b6101df6103293660046114ae565b610855565b61021461033c3660046114d8565b610a2a565b6101f3600a5481565b6102146103583660046115e1565b610a37565b6101df61036b36600461152d565b60096020526000908152604090205460ff1681565b6101f361038e366004611654565b610b71565b6102146103a136600461152d565b610b9c565b6060600380546103b590611687565b80601f01602080910402602001604051908101604052809291908181526020018280546103e190611687565b801561042e5780601f106104035761010080835404028352916020019161042e565b820191906000526020600020905b81548152906001019060200180831161041157829003601f168201915b5050505050905090565b600033610446818585610bd7565b60019150505b92915050565b61045a610be9565b600a55565b6001600160a01b038316600090815260096020526040812054849060ff16156104a35760405162461bcd60e51b815260040161049a906116c1565b60405180910390fd5b6001600160a01b038416600090815260096020526040902054849060ff16156104de5760405162461bcd60e51b815260040161049a906116c1565b83600a548111156105015760405162461bcd60e51b815260040161049a906116f1565b610509610c16565b84610529886001600160a01b031660009081526020819052604090205490565b101561056e5760405162461bcd60e51b8152602060048201526014602482015273496e73756666696369656e742062616c616e636560601b604482015260640161049a565b846105798833610b71565b10156105bb5760405162461bcd60e51b8152602060048201526011602482015270416c6c6f77616e636520746f6f206c6f7760781b604482015260640161049a565b60006064600b54876105cd9190611750565b6105d79190611767565b905060006105e58288611789565b9050876001600160a01b0316896001600160a01b03167f6e2b668012e1817f19eb2f535271cf2cbca5fdb6acd9febb631796b7d0fe4f4b8484604051610635929190918252602082015260400190565b60405180910390a3610648893084610c41565b610653898983610c41565b6106728933896106638d33610b71565b61066d9190611789565b610bd7565b876001600160a01b0316896001600160a01b03167f34caab151e8d6961b94c93b519c8a0659891a5c0f41fa0d87463c787308e095c83856040516106c0929190918252602082015260400190565b60405180910390a350600198975050505050505050565b60006106e1610ca0565b905090565b6106ee610be9565b6106f6610dcb565b565b610700610be9565b6001600160a01b03166000908152600960205260409020805460ff19166001179055565b61072c610be9565b30600090815260208190526040902054806107895760405162461bcd60e51b815260206004820152601d60248201527f4e6f206665657320617661696c61626c6520746f207769746864726177000000604482015260640161049a565b610794303383610c41565b50565b61079f610be9565b6001600160a01b03166000908152600960205260409020805460ff19169055565b6107c8610be9565b6106f66000610e20565b6001600160a01b03811660009081526007602052604081205461044c565b6107f8610be9565b6106f6610e72565b600060608060008060006060610814610eb5565b61081c610ee2565b60408051600080825260208201909252600f60f81b9b939a50919850469750309650945092509050565b6060600480546103b590611687565b3360008181526009602052604081205490919060ff16156108885760405162461bcd60e51b815260040161049a906116c1565b6001600160a01b038416600090815260096020526040902054849060ff16156108c35760405162461bcd60e51b815260040161049a906116c1565b83600a548111156108e65760405162461bcd60e51b815260040161049a906116f1565b6108ee610c16565b3360009081526020819052604090205485111561094d5760405162461bcd60e51b815260206004820181905260248201527f496e73756666696369656e742062616c616e636520746f207472616e73666572604482015260640161049a565b60006064600b548761095f9190611750565b6109699190611767565b905060006109778288611789565b60408051848152602081018390529192506001600160a01b038a169133917f6e2b668012e1817f19eb2f535271cf2cbca5fdb6acd9febb631796b7d0fe4f4b910160405180910390a36109cb333084610c41565b6109d6338983610c41565b60408051828152602081018490526001600160a01b038a169133917f34caab151e8d6961b94c93b519c8a0659891a5c0f41fa0d87463c787308e095c910160405180910390a3506001979650505050505050565b610a32610be9565b600b55565b83421115610a5b5760405163313c898160e11b81526004810185905260240161049a565b60007f6e71edae12b1b97f4d1f60370fef10105fa2faae0126114a169c64845d6126c9888888610aa88c6001600160a01b0316600090815260076020526040902080546001810190915590565b6040805160208101969096526001600160a01b0394851690860152929091166060840152608083015260a082015260c0810186905260e0016040516020818303038152906040528051906020012090506000610b0382610f0f565b90506000610b1382878787610f3c565b9050896001600160a01b0316816001600160a01b031614610b5a576040516325c0072360e11b81526001600160a01b0380831660048301528b16602482015260440161049a565b610b658a8a8a610bd7565b50505050505050505050565b6001600160a01b03918216600090815260016020908152604080832093909416825291909152205490565b610ba4610be9565b6001600160a01b038116610bce57604051631e4fbdf760e01b81526000600482015260240161049a565b61079481610e20565b610be48383836001610f6a565b505050565b6008546001600160a01b031633146106f65760405163118cdaa760e01b815233600482015260240161049a565b600854600160a01b900460ff16156106f65760405163d93c066560e01b815260040160405180910390fd5b6001600160a01b038316610c6b57604051634b637e8f60e11b81526000600482015260240161049a565b6001600160a01b038216610c955760405163ec442f0560e01b81526000600482015260240161049a565b610be4838383611040565b6000306001600160a01b037f000000000000000000000000000000000000000000000000000000000000000016148015610cf957507f000000000000000000000000000000000000000000000000000000000000000046145b15610d2357507f000000000000000000000000000000000000000000000000000000000000000090565b6106e1604080517f8b73c3c69bb8fe3d512ecc4cf759cc79239f7b179b0ffacaa9a75d522b39400f60208201527f0000000000000000000000000000000000000000000000000000000000000000918101919091527f000000000000000000000000000000000000000000000000000000000000000060608201524660808201523060a082015260009060c00160405160208183030381529060405280519060200120905090565b610dd361116a565b6008805460ff60a01b191690557f5db9ee0a495bf2e6ff9c91a7834c1ba4fdd244a5e8aa4e537bd38aeae4b073aa335b6040516001600160a01b03909116815260200160405180910390a1565b600880546001600160a01b038381166001600160a01b0319831681179093556040519116919082907f8be0079c531659141344cd1fd0a4f28419497f9722a3daafe3b4186f6b6457e090600090a35050565b610e7a610c16565b6008805460ff60a01b1916600160a01b1790557f62e78cea01bee320cd4e420270b5ea74000d11b0c9f74754ebdbfc544b05a258610e033390565b60606106e17f00000000000000000000000000000000000000000000000000000000000000006005611194565b60606106e17f00000000000000000000000000000000000000000000000000000000000000006006611194565b600061044c610f1c610ca0565b8360405161190160f01b8152600281019290925260228201526042902090565b600080600080610f4e8888888861123f565b925092509250610f5e828261130e565b50909695505050505050565b6001600160a01b038416610f945760405163e602df0560e01b81526000600482015260240161049a565b6001600160a01b038316610fbe57604051634a1406b160e11b81526000600482015260240161049a565b6001600160a01b038085166000908152600160209081526040808320938716835292905220829055801561103a57826001600160a01b0316846001600160a01b03167f8c5be1e5ebec7d5bd14f71427d1e84f3dd0314c0f7b2291e5b200ac8c7c3b9258460405161103191815260200190565b60405180910390a35b50505050565b6001600160a01b03831661106b578060026000828254611060919061179c565b909155506110dd9050565b6001600160a01b038316600090815260208190526040902054818110156110be5760405163391434e360e21b81526001600160a01b0385166004820152602481018290526044810183905260640161049a565b6001600160a01b03841660009081526020819052604090209082900390555b6001600160a01b0382166110f957600280548290039055611118565b6001600160a01b03821660009081526020819052604090208054820190555b816001600160a01b0316836001600160a01b03167fddf252ad1be2c89b69c2b068fc378daa952ba7f163c4a11628f55a4df523b3ef8360405161115d91815260200190565b60405180910390a3505050565b600854600160a01b900460ff166106f657604051638dfc202b60e01b815260040160405180910390fd5b606060ff83146111ae576111a7836113cb565b905061044c565b8180546111ba90611687565b80601f01602080910402602001604051908101604052809291908181526020018280546111e690611687565b80156112335780601f1061120857610100808354040283529160200191611233565b820191906000526020600020905b81548152906001019060200180831161121657829003601f168201915b5050505050905061044c565b600080807f7fffffffffffffffffffffffffffffff5d576e7357a4501ddfe92f46681b20a084111561127a5750600091506003905082611304565b604080516000808252602082018084528a905260ff891692820192909252606081018790526080810186905260019060a0016020604051602081039080840390855afa1580156112ce573d6000803e3d6000fd5b5050604051601f1901519150506001600160a01b0381166112fa57506000925060019150829050611304565b9250600091508190505b9450945094915050565b6000826003811115611322576113226117af565b0361132b575050565b600182600381111561133f5761133f6117af565b0361135d5760405163f645eedf60e01b815260040160405180910390fd5b6002826003811115611371576113716117af565b036113925760405163fce698f760e01b81526004810182905260240161049a565b60038260038111156113a6576113a66117af565b036113c7576040516335e2f38360e21b81526004810182905260240161049a565b5050565b606060006113d88361140a565b604080516020808252818301909252919250600091906020820181803683375050509182525060208101929092525090565b600060ff8216601f81111561044c57604051632cd44ac360e21b815260040160405180910390fd5b6000815180845260005b818110156114585760208185018101518683018201520161143c565b506000602082860101526020601f19601f83011685010191505092915050565b60208152600061148b6020830184611432565b9392505050565b80356001600160a01b03811681146114a957600080fd5b919050565b600080604083850312156114c157600080fd5b6114ca83611492565b946020939093013593505050565b6000602082840312156114ea57600080fd5b5035919050565b60008060006060848603121561150657600080fd5b61150f84611492565b925061151d60208501611492565b9150604084013590509250925092565b60006020828403121561153f57600080fd5b61148b82611492565b60ff60f81b881681526000602060e0602084015261156960e084018a611432565b838103604085015261157b818a611432565b606085018990526001600160a01b038816608086015260a0850187905284810360c08601528551808252602080880193509091019060005b818110156115cf578351835292840192918401916001016115b3565b50909c9b505050505050505050505050565b600080600080600080600060e0888a0312156115fc57600080fd5b61160588611492565b965061161360208901611492565b95506040880135945060608801359350608088013560ff8116811461163757600080fd5b9699959850939692959460a0840135945060c09093013592915050565b6000806040838503121561166757600080fd5b61167083611492565b915061167e60208401611492565b90509250929050565b600181811c9082168061169b57607f821691505b6020821081036116bb57634e487b7160e01b600052602260045260246000fd5b50919050565b6020808252601690820152751058d8dbdd5b9d081a5cc8189b1858dadb1a5cdd195960521b604082015260600190565b60208082526029908201527f416d6f756e74206578636565647320746865206d6178696d756d207472616e7360408201526819995c881b1a5b5a5d60ba1b606082015260800190565b634e487b7160e01b600052601160045260246000fd5b808202811582820484141761044c5761044c61173a565b60008261178457634e487b7160e01b600052601260045260246000fd5b500490565b8181038181111561044c5761044c61173a565b8082018082111561044c5761044c61173a565b634e487b7160e01b600052602160045260246000fdfea26469706673582212209cdcbbb3b91753674e9377e19fa9fb4ef12b5b51d07dd993c1e532c08562f4bd64736f6c63430008180033",
  "linkReferences": {},
  "deployedLinkReferences": {}
}